:020000040800F2
:10000000B0AC00207503000803C50008F9C1000862
:1000100001C50008D590000879D80008000000004C
:10002000000000000000000000000000B502000811
:1000300067920008000000001103000849D300087F
:100040008F0300088F0300088F0300088F03000848
:100050008F0300088F0300088F0300088F03000838
:100060008F0300088F0300088F0300088F03000828
:100070008F0300088F0300088F0300088F03000818
:100080008F0300088F0300088F0300088F03000808
:100090008F0300088F0300088F0300088F030008F8
:1000A0008F0300088F0300088F0300088F030008E8
:1000B0008F0300088F0300088F0300088F030008D8
:1000C0008F0300088F0300088F0300088F030008C8
:1000D0008F0300088F0300088F0300088F030008B8
:1000E0008F0300088F0300088F0300088F030008A8
:1000F0008F0300088F0300088F0300088F03000898
:100100008F03000845C500088F0300088F0300080F
:100110008F0300088F0300088DD400088F030008A8
:100120008F0300088F0300088F03000881910008E7
:100130008F0300088F0300088F0300088F03000857
:100140008F0300088F0300088F0300088F03000847
:100150008F0300088D9100088F0300088F030008AB
:100160008F0300088F0300088F0300088F03000827
:100170008F0300088F0300088F03000800000000B1
:100180008F0300088F0300088F0300088F03000807
:100190008F0300088F0300088F0300088F030008F7
:1001A00031C300088F030008D990000800F002F85E
:1001B00000F070F80AA090E8000C82448344AAF191
:1001C0000107DA4501D100F065F8AFF2090EBAE88F
:1001D0000F0013F0010F18BFFB1A43F0010318477B
:1001E000F4E9040014EA04000A444FF0000C10F88B
:1001F000013B13F0070408BF10F8014B1D1108BFA5
:1002000010F8015B641E05D010F8016B641E01F844
:10021000016BF9D113F0080F1EBF10F8014BAD1C94
:100220000C1B09D16D1E58BF01F801CBFAD505E0B2
:1002300014F8016B01F8016B6D1EF9D59142D6D30C
:10024000704700000023002400250026103A28BF34
:1002500078C1FBD8520728BF30C148BF0B60704738
:10026000642908F08B82782908F0C482632908F099
:100270007C85002070471FB511F072FA9DE80300DD
:1002800008F0DAFC08F0A4FC1FBD10B5002008F04F
:100290008BFD10BD08F03AFE1146FFF7ECFF0FF0A2
:1002A000B7FB08F058FE03B4FFF7EFFF03BC0FF0F5
:1002B00072FA00002C4B19680868B0E8F04F80F320
:1002C0000988BFF36F8F4FF0000080F311887047EB
:1002D0000000000008480068006880F308884FF0BC
:1002E000000080F3148862B661B6BFF34F8FBFF38E
:1002F0006F8F00DF00BF00BF08ED00E0DFF80C00EB
:10030000016841F470010160704700BF88ED00E0B2
:10031000EFF30980BFF36F8F134B1A681EF0100FB5
:1003200008BF20ED108A20E9F04F106009B44FF0AB
:10033000500080F31188BFF34F8FBFF36F8F10F021
:1003400077F94FF0000080F3118809BC196808683C
:10035000B0E8F04F1EF0100F08BFB0EC108A80F329
:100360000988BFF36F8F70475C000020EFF30580B2
:10037000704700000948804709480047FEE7FEE74C
:10038000FEE7FEE7FEE7FEE7FEE7FEE7FEE7FEE745
:1003900004480549054A064B7047000039D4000857
:1003A000AD010008B0A40020B0AC0020B0A800202F
:1003B000B0A8002070470FF050B970B5044600682F
:1003C0000D46016A20468847A84206D32068C169C5
:1003D00020468847A188884201D808F0D3FA2068CF
:1003E000426A20469047A188491CA18070BD70B523
:1003F0000446006815460E46026A20469047A84209
:1004000001D208F0BFFA20683146426A2046BDE8B2
:10041000704010478088704770B5044600680D46EC
:100420000021426A20469047281A86B22068016A55
:1004300020468847B6FBF0F6A088B04212D9206863
:100440000021426A20469047281A85B22068016A36
:1004500020468847B5FBF0F100FB1150002804BF8F
:10046000304670BD08F08EFA002181807047024945
:100470000160002181807047401E010870472DE90E
:10048000F04F8FB006461D4614460F4604A80FF0E5
:10049000E8F8214606A80FF0E4F804A807F008F8E9
:1004A000394606A806F0ECFFBDF91810BDF8140097
:1004B000BDF81A2010FB021006EB8006BDF81000F4
:1004C000DFF858840844ADF81800BDF81200BDF9F3
:1004D0001C401044ADF81A00D8F80000BDF91E7099
:1004E0000168896B8847FF2D18D010F0400F18D095
:1004F000BDF81400A2B2B9B203950092CDE9011083
:10050000D8F80000BDF81A30BDF818200168D1F8FD
:1005100044C03146E0470FB0BDE8F08F10F0200F27
:10052000E6D1FE4800680168096A8847DFF8F0B341
:10053000BDF91810BDF91A20BBF8003003FB0211F9
:1005400001EB4101002201EB000E002F42DD002CE7
:100550003DDDBDF91400A446504306EB8000C11CEC
:10056000BBF80000504300EB400070440B784BB3E5
:10057000FF2B08BFFF2D35D06B4311F8039C90F87B
:1005800000A0C3F5803809FB03F90AFB08994FEA7C
:10059000194980F8009011F8029C90F801A009FB1D
:1005A00003F90AFB08994FEA194980F8019011F8FC
:1005B000019C09FB03F390F8029009FB0833C3F395
:1005C00007438370091DC01CBCF1010CCED1521C25
:1005D0009742BCDCD14800680168496A88470FB07F
:1005E000BDE8F08F11F8033C037011F8023C437032
:1005F00011F8013CE5E72DE9F04784B08946DDE9D3
:100600000C860746002E04BF04B0BDE8F0871446F0
:100610009A46084602F031F80546484602F04EF880
:10062000ADF80C50ADF80840ADF80E00ADF80AA0DA
:10063000484601F0E9FFA8B1484601F0E5FF02286D
:10064000484611D001F09CFF0022CDE900623A68D3
:1006500001464346D2F810C002AA3846E04704B02B
:10066000BDE8F08708F08EF901F08AFF3346424674
:1006700002A9FFF704FF04B0BDE8F0872DE9F04FB1
:100680008FB01F46DDE9184816460D46002C04BF02
:100690000FB0BDE8F08F114606A80EF0E2FF394614
:1006A00008A80EF0DEFF06A806F002FF314608A8F3
:1006B00006F0E6FEBDF92000BDF81C20BDF82210B2
:1006C00012FB010202EB42025719BDF81820DFF8B5
:1006D0004C921044ADF82000BDF81A00BDF924601A
:1006E0000844ADF82200D9F80000BDF92650016891
:1006F000896B8847FF2C02D210F0040F0DD1B8F19E
:10070000000F18BF10F0100F07D1FF2C08BFB8F171
:10071000000F19D110F0010F16D0BDF81C00A9B2BE
:10072000CDE90110B0B20090CDE90348D9F800003E
:10073000BDF82230BDF820200168D1F840C039460C
:10074000E0470FB0BDE8F08F744800680168096A9F
:100750008847DFF8CCC1BDF92030BDF92210BCF8C4
:100760000020FF2C02FB013101EB410101EB0008ED
:1007700048D20023C4F58079002DC8BF06EB460A95
:100780006DDD00BFBAF1000F38DDBDF91C0003EBD1
:10079000430100FB0170411EBCF80000584300EB10
:1007A00040004044401E16F0010F09D011F8012FFF
:1007B00090F801B062430BFB0922120A00F8012FE6
:1007C0005FEA6A021AD000BF91F801B090F801E028
:1007D0000BFB04FB0EFB09BB4FEA1B2B80F801B09F
:1007E00011F802BF90F802E00BFB04FB0EFB09BB03
:1007F0004FEA1B2B00F802BF521EE5D15B1C9D4245
:10080000C0DC2CE00023002DC8BF06EB460426DD2B
:10081000002C21DDBDF91C0003EB430100FB01703E
:10082000411EBCF80000584300EB40004044401E0D
:1008300016F0010F03D011F8012F00F8012F6210FC
:100840000AD000BF91F8019080F8019011F8029F42
:1008500000F8029F521EF5D15B1C9D42D8DC2F4848
:1008600000680168496A88470FB0BDE8F08F70B52D
:1008700082B00D46DDE906611C46032A17D2DFE887
:1008800002F0160A02000B4602B032462146284604
:10089000BDE87040F3E50022CDE90012016833465F
:1008A0002246D1F810C02946E04702B070BD08F0DA
:1008B00069F82DE9F04385B0144602A80EF0D1FE88
:1008C00002A806F0F5FD4FF6FE75AC4202D11548C0
:1008D000007890B1114F38680168896B884710F033
:1008E000010F2AD0AC420AD1386801684B6DDDE9AE
:1008F0000212984705B0BDE8F08308F043F8ADF860
:10090000044001A801F03CFE054601A83C6801F046
:10091000B4FE009020682B4606E00000B4030020DF
:10092000AE030020A6030020DDE90212D0F858C073
:100930002046E04705B0BDE8F08338680168896A61
:100940008847DFF80485BDF90810BDF90A20B8F81A
:100950000030ADF8004003FB021101EB41010D181E
:10096000684601F00DFE0446BDF90E000026002881
:100970001EDD00BFBDF90C00D7F8009000EB40036E
:100980002A46D9F800002146D0F834C04846E0474E
:10099000B8F8000000EB40000544684601F06DFE29
:1009A00000EB40000444BDF90E00761CB042E1DCCF
:1009B000684601F0E5FD05B0BDE8F083002B08BFF7
:1009C00070472DE9F04F888887B01D469146002872
:1009D00019BFC888002807B0BDE8F08F04A80EF042
:1009E00040FE04A806F064FDDFF86084D8F800003B
:1009F0000168896B8847FF2D03D010F0080F18D0CD
:100A000002E010F0020F14D0BDF81600BDF814106B
:100A1000CDE900100295D8F80000BDF81230BDF8FD
:100A200010200168D1F84CC04946E04707B0BDE846
:100A3000F08FD8F80000BDF91460BDF91670016898
:100A4000096A8847BDF91010BDF91230FE4AC9F392
:100A5000074AC9F30724B2F800C003FB0C1101EBED
:100A600041010B18C5F5807C09F0FF01FF2D2ED246
:100A70000AFB05F904FB05FA69430025002F3EDD5A
:100A8000002E20DD10883446684300EB40001844F7
:100A900090F800B00BFB0C1B4FEA1B2B80F800B04A
:100AA00090F801B00BFB0CAB4FEA1B2B80F801B0A8
:100AB00090F802B00BFB0C9B4FEA1B2B80F802B0A6
:100AC000C01C641EE4D16D1CAF42D9DC17E04FF0AE
:100AD000000C002F13DD002E0DDD1088354600FBC5
:100AE0000CF000EB400018440170447080F802A044
:100AF000C01C6D1EF8D10CF1010C6745EBDCD8F879
:100B000000000168496A884707B0BDE8F08F2DE909
:100B1000FF4F2DED048BA2B0D3F80080DDE93350F8
:100B2000DDE935BA0689B0F80CC066F30F016CF345
:100B30001F41D5F800C0BBF90090BAF90060DDE9AB
:100B4000384709EB0805A6EB050EACEB080CCDF811
:100B500030E0E645A1BF22B0BDEC048B04B0BDE897
:100B6000F08FBAF904A006EB0A0EAE457EDBDDF885
:100B70009CA000686745DAF800A017901C90BBF9AC
:100B80000200D3F814B08344279840680BFB009010
:100B9000404400EB40005044C8BF6746029700EE57
:100BA000107A92ED091AD3ED070AB8EEC00AB7EE33
:100BB000005A93ED0A2AD3ED0D1A61EE006A00EE99
:100BC000107A92ED0B1AB8EEC00A70EEA64A21EE2A
:100BD000006A00EE107A92ED0D1A0022B8EEC00AFB
:100BE00032EE064A1292AE4261EE005A85EE200ABB
:100BF00031EEA51A20EE022A20EE210A3ADD0C9BE6
:100C00003D4693FBF7F200EE902A07FB1233F8EE15
:100C1000E00A1293002A46EEA04A00EE902AF8EE6F
:100C2000E00A06EE204A00EE902AF8EEE00A05EE11
:100C3000A01A14DD74EEE60AB0EE450AF5EEC00A1D
:100C4000F1EE10FA03D0C0EE201AB0EE610A74EE95
:100C5000460A20EE802A71EE650A20EE800A02FB29
:100C600015CC02FB05F303EB430300E08CE002FB31
:100C70000588184408EB0C0209EB02039E45BCBF33
:100C8000AEEB0902A2EB080CBCF1000F7CDD9CFB73
:100C9000F7F2119207FB12C23B4607921AB9119A5A
:100CA0000793521E11929FED6A7ADFED6A8ADFED9B
:100CB0006A7A119A002ADCBF079A002A64DDC5EE21
:100CC000240ADDF808C020EE848A60EE811A62EE04
:100CD000070AFDEEE00A10EE903A60EE070A31EEE8
:100CE000C00AFDEEE00A20EE070A10EE902A78EE28
:100CF000420ABDEEC00A60EE870AFDEEE00A10EE81
:100D0000905A95FBFCF610EE10CA029D9CFBF5F57F
:100D1000DDF844C0BCF1000FCCBFDDF808C0DDF841
:100D20001CC0129F002F0BDD07EB47073844129FB2
:100D300006FB073305FB0722ACEB070C00271297D5
:100D4000ACF1010707FB063A07FB05274FEA2348EA
:100D50003F144FEA22494FEA2A4AB8F1000FA4BFD4
:100D60000FFA81FBC34514DDB9F1000FA4BF4FEAB0
:100D70002148C8450DDDBAF1000FA8BFD34508DDF5
:100D8000002FA8BFB84500E0F9E3C8BF4FF0000846
:100D900001DC4FF00108379F042F00F02781052F59
:100DA00007D00A2F00F0B2810B2F00F01F8200F055
:100DB000D5BB4FF00009BCF1000F40F3CF831F14E7
:100DC0004FEA224BB8F1000F0ED0002FA4BF0FFA4C
:100DD00081FABA4506DDBBF1000FA4BF4FEA214AF4
:100DE000DA4501DCC01CF8E00FFA81FA0BFB0A7748
:100DF00007EB470B1C9F0BEB070EC3F30337C2F344
:100E0000033BCDF804B0089717FB0BF70AEB4A0A2F
:100E1000CDF868E0D644CDF810E00EF1030ECDF821
:100E20006CE0DDF820A0DDF868E0DA44FF10CAF1DC
:100E3000000A9EF800E007EB4A0A0AF1200A1EFBAE
:100E40000AFBCDF878A009E0AE030020B40300202F
:100E5000000080470000803D00007F43DDF868E02F
:100E6000DDF820A09EF803E0C7EB4A0ACDF87CA08D
:100E70001EFB0ABADDF810E0DDF804B09EF800E0D1
:100E8000C7EB4B0BCDF880B01EFB0BFBDDF86CE025
:100E90009EF800E01EFB07BBDDF810E0DA440EF11F
:100EA000010ECDF810E0DDF86CE0CAF3471B0EF13F
:100EB000010ECDF86CE0FF2C0BD0C4F5807ACDF894
:100EC00004A090F800E00BFB04FB0EFB0ABACAF387
:100ED000072B80F800B000F1010ACDF814A0DDF86E
:100EE00068A00AF1010ACDF868A09AF800B0DDF810
:100EF00078A00BFB0AFBDDF868A09AF803E0DDF8A8
:100F00007CA00EFB0ABBDDF810A09AF800E0DDF82B
:100F100080A00EFB0AFEDDF86CA09AF800A00AFB88
:100F200007EADA44DDF810B0CAF3471A0BF1010BF7
:100F3000CDF810B0DDF86CB00BF1010BCDF86CB052
:100F40000FD0C4F5807BCDF804B0DDF814B00AFBF7
:100F500004FA9BF800E0DDF804B00EFB0BAACAF31C
:100F6000072ADDF814B08BF800A0DDF814A00AF110
:100F7000010ACDF814A0DDF868A0DDF878B09AF881
:100F800001E00EFB0BFB9AF804E0DDF87CA00EFB01
:100F90000ABBDDF810A09AF800E0DDF880A00EFB97
:100FA0000AFEDDF86CA09AF800A00AFB07E75F4490
:100FB000C7F347170BD0DDF814B0C4F5807A07FBF0
:100FC00004F79BF800B00BFB0A77C7F30727DDF89F
:100FD00014A000F103008AF8007009F101093344FC
:100FE0002A44E145FFF6EBAE00F0B8BAFF2C52D22E
:100FF000C4F5807ABCF1000FC8BF4FF0000940F380
:10100000AD8200BF06FB093705FB092B3F144FEAF1
:101010002B4BB8F1000F0ED0002FA4BF0FFA81FEAA
:10102000BE4506DDBBF1000FA4BF4FEA214EDE45F1
:1010300001DCC01C28E00FFA81FE0BFB0E7707EBEA
:10104000470B1C9F90F800E05F4497F800B00BFB43
:1010500004FB0EFB0ABB4FEA1B2B80F800B097F88D
:1010600001B090F801E00BFB04FB0EFB0ABB4FEA5A
:101070001B2B80F801B0BF7810F802BF67430BFB51
:101080000A773F0A00F8017B09F10109BCF1010C64
:10109000B8D100F063BABCF1000FC8BF4FF000092F
:1010A00040F35C8206FB09374FEA274A05FB092714
:1010B0003F14B8F1000F0ED0BAF1000FA4BF0FFA21
:1010C00081FBD34505DD002FA4BF4FEA214BBB4573
:1010D00001DCC01C12E00FFA81FB07FB0BA707EB3A
:1010E000470A1C9F574497F800A000F801AB97F8F7
:1010F00001A000F801ABBF7800F8017B09F10109FC
:10110000BCF1010CCED100F029BA00BF4FF00009AC
:10111000BCF1000F40F3228217144FEA234AB8F1C2
:10112000000F0CD0BAF1000FA4BF0FFA81FBD3451A
:1011300059DD002FA4BF4FEA214BBB4553DDDDF83D
:101140005CB00BEB8A0A0FFA81FB0BFB07F75AF82E
:1011500027705FEA176B46D0C7F3074ACDF814A093
:10116000C7F3072AFFB20497BBF1FF0F08BFFF2C9C
:1011700029D004FB0BF70897C7F580370A97DDF8ED
:1011800010B0089F90F800E00BFB07FB0A9F0EFBD6
:1011900007B7C7F307470497089F90F802E00AFBD8
:1011A00007FB90F801A00A9F0AFB07B7C7F3074A9D
:1011B000DDF814B0089F0BFB07FB0A9F0EFB07B777
:1011C000C7F307470597049F00F8017B00F801ABC0
:1011D000059F00F8017B09F1010933442A44E145E8
:1011E0009ADB00F0BBB9C01CF5E700BF4FF0000967
:1011F000BCF1000F40F3B2811F144FEA224AB8F14C
:10120000000F0ED0002FA4BF0FFA81FBBB4540F3A7
:101210009D81BAF1000FA4BF4FEA214BD34540F3A3
:101220009581DDF85CB00FFA81FE0BEB87070EFBB2
:101230000AFA07EB8A07CDF804E0D7E900AB57F8C4
:101240002EE0CDF86CE0DDF804E007EB8E074FEA06
:101250001A6E7F682097CDF80CE00AF0FF1707FBA5
:101260000EFE4FF0FF1707EA1E27DDF80CE00AF428
:101270007F4A0AFB0EFE4FF47F4A0AEA1E2A47EA1B
:101280000A0ECDF87CE04FEA1B6E0BF0FF170BF453
:101290007F4A07FB0EFB4FF0FF1707EA1B270AFBED
:1012A0000EFB4FF47F4A0AEA1B2ACDF868E047EAB2
:1012B0000A0BDDF86CE0CDF878B04FEA1E6B0EF04B
:1012C000FF1ACDF810B00AFB0BFB4FF0FF1A0AEA29
:1012D0001B2ADDF810B00EF47F4707FB0BFB4FF421
:1012E0007F4707EA1B274AEA070BCDF86CB0209F1F
:1012F0004FEA176A07F0FF1B0BFB0AFE4FF0FF1BBC
:1013000007F47F470BEA1E2B07FB0AFE4FF47F47CB
:1013100007EA1E274BEA0707C3F3033B00EE10BAA8
:10132000C2F3033B00EE90BADDF80CE0B8EE400AE1
:10133000F8EE600A20EE280A20EEA83A00EE90EAC5
:10134000DDF868E0F8EE600A02EE10EADDF810B0B1
:10135000DDF87CE0F8EE423A02EE10BA4FEA1E4B9E
:10136000F8EE422A02EE10AA73EEE03AB8EE422AF4
:1013700043EE800A32EE622A42EE002A32EEE02A82
:1013800042EE030AFCEEE00A10EE90AA00EE90BADC
:10139000DDF878B00AF0FF0A4FEA1B4B02EE10BAF4
:1013A000F8EE600ADDF86CB0B8EE422A4FEA1B4B4B
:1013B00002EE90BA4FEA174B32EE602A03EE90BA73
:1013C000F8EE622A42EE000A02EE10AAF8EE633A44
:1013D000B8EE429A73EEE23A87EE892A43EE802A0B
:1013E00072EEE02A42EE830A62EE200AFCEEE00A88
:1013F00010EE90BA0BF0FF0BCDF80CB0CEF3072B2C
:1014000000EE90BADDF878B0CBF3072B02EE10BAFD
:10141000F8EE600ADDF86CB0F8EE422ACBF3072B49
:1014200002EE10BAC7F3072B72EEE02A03EE90BA71
:10143000B8EE422A42EE800A02EE90AAF8EE633A33
:10144000B8EE629A73EEC23AC7EE892A03EE802A9A
:1014500032EE602A42EE030A62EEA00AFCEEE00AD7
:1014600010EE90BA0BF0FF0BCDF810B00EF0FF0BA2
:1014700000EE90BADDF878B0FFB20BF0FF0B02EE91
:1014800010BAF8EE600ADDF86CB0B8EE422A0BF044
:10149000FF0B02EE90BABAF1000F32EE602AF8EEBE
:1014A000623A02EE907A42EE000A02EE10AAF8EEDC
:1014B000622AB8EE422A72EEE32A87EE829A42EE60
:1014C000803A33EEE00A40EE030A29EE200ABCEE31
:1014D000C00A10EE107A07F0FF0B37D0BAF1FF0FF9
:1014E00008BFFF2C29D004FB0AF70197C7F5803706
:1014F0000A97019F90F800A00BFB07FB0A9F90F84A
:1015000001E00AFB07B7C7F3074BDDF810A0019F06
:101510000AFB07FA0A9F0EFB07A7C7F307470497C2
:10152000DDF80CA0019F0AFB07FE90F802A00A9FBD
:101530000AFB07E7C7F30747039700F801BB049FBF
:1015400000F8017B039F00F8017B00E0C01C09F15B
:10155000010933442A44E145FFF64EAE74EEA64A33
:1015600034EE064A31EE251A119AB0EE482AB0EE52
:10157000610A002AC4BF521E11923FF79BAB22B0F2
:10158000BDEC048B04B0BDE8F08F0300FE48028878
:10159000C2F1000006D001290BD002290BD003298B
:1015A0000BD07047012906D0022906D0032908BFB5
:1015B000704701207047104670474FF0FF3070476A
:1015C0000300F1480288C2F1000007D001290CD0C5
:1015D00002290CD0032908BF70470BE0012906D06F
:1015E000022908BF7047032904D0104670474FF006
:1015F000FF307047012070472DE9FF4F8BB08846C0
:10160000DDE91C09DDE92045B0F900108288DDF82C
:101610007CA00A4412B208924288C0881A9F1044E3
:1016200000B2059099F80D00189E10F0080218BF3E
:101630004FF4807299F806301A43029210F01000AD
:1016400018BF4FF4807099F807201043019002985A
:10165000002819BF019800280FB0BDE8F08F002FB7
:1016600099F9090004BF304406B207D0381A87B28E
:1016700038B2002802DAF01B06B20027B14203DDBF
:10168000881B384487B20E46C0480078012818BF2E
:101690000020049031460DA8229B199A03F04DFEBC
:1016A000ADF8180031460DA8229B199A03F05DFE93
:1016B000ADF81C0007A906A805F072FE229904984F
:1016C000CDF800A0084304D001294FD10498002888
:1016D0004CD0DFF8BCA2DAF800000168896B8847BB
:1016E00010F0800F08D0042C06D199F80D1011F0DD
:1016F000010F18BF012100D1002110F4807F03D019
:10170000082C08BF012000D0002008432ED000295B
:101710000CBF4FF4807180211B98384326D102986A
:1017200032180898824221DC019A199802440598DF
:1017300090421BDB0298082C1CBF401C20F00100CB
:10174000CDE9045100990090CDE90201BDF81C00DB
:1017500083B2BDF8180082B2DAF800000168D1F84F
:1017600048C01E99E0470FB0BDE8F08F8648BDF92C
:101770001820BDF91C300188DDF808C003FB0120EA
:10178000FF2222FA04FA6FEA0A0200EB400002F09C
:10179000FF0B4044C4F1080202F0FF084246042C4B
:1017A00006D199F80D3013F0010F18BF012300D1B5
:1017B000002313EA0C0F18BF0CF1010CDDF86C903C
:1017C0001E9B57EA090917D01B9ADDF86CE00CFB49
:1017D000027262431FFA82F909F0070203EBD90390
:1017E000DDF804902244A9EB0E09C2F108021FFAA9
:1017F00089F9D2B2CDF80490DDF810E0DDF88890D8
:10180000BEF1000F09D0B9F1010F1AD0B9F1020FE2
:1018100010D0B9F1030F0FD011E0B9F1010F09D0C9
:10182000B9F1020F08D0B9F1030F18BF4FF0010949
:1018300005D006E0894604E04FF0FF3901E0C1F130
:101840000009CDF80C90DDF88890BEF1000F09D0AA
:10185000B9F1010F16D0B9F1020F0DD0B9F1030F94
:101860000DD00EE0B9F1010F06D0B9F1020F06D08C
:10187000B9F1030F05D005E04FF0FF3102E0494216
:1018800000E001218E46DDF864900599A1EB09097D
:1018900001998945C8BF8946F61B0899891B029E94
:1018A000B142C8BF3146C91B0191ACEB0101614394
:1018B00004910099B9F1000FC1F3074CCDF820C095
:1018C000C1F3072CC9B2CDF814C0CDF80090029135
:1018D000DCBF0FB0BDE8F08F0399DDF804C001EB69
:1018E00041070499039E091B099106FB1CE101EBCA
:1018F000410103910199002953DD00BF93F800C015
:101900000CFA02FC1CEA0B0C39D04CEA0A0CBCF1B4
:10191000FF0F01DBFF2D26D20CFB05FCDDF8089044
:1019200090F800E0CCF5803609FB0CF90EFB069927
:101930004FEA194980F80090DDF8149090F801E022
:1019400009FB0CF90EFB06994FEA194980F8019042
:10195000DDF8209009FB0CFC90F8029009FB06CC06
:10196000CCF3074C09E0DDF808C080F800C0DDF8D2
:1019700014C080F801C0DDF820C080F802C0002A41
:101980001CBF121BD2B205E0AE030020A40300204E
:10199000B403002004BF42465B1C3844491E0029A2
:1019A000ACDC049979B18A4209DA0999891A4FEABB
:1019B000E17C01EB5C7C012101EBEC010B4404991F
:1019C000511A01F00702039908440099491E009139
:1019D00000298FDC0FB0BDE8F08F0000FE48C06822
:1019E000704770B50C00054613D0FB4E0020A5F8DB
:1019F0008400706810B10168496988477460216883
:101A00002046C96888472868816A2846BDE8704032
:101A1000084706F0B7FFF14900B50A88F04983B0DE
:101A20004FF0000C0988ADF800C0ADF80420ADF807
:101A300002C0ADF806100168CA6A6946904703B053
:101A400000BD2DE9F04F824610B28DB00C46154610
:101A5000002812BF5FEA25400DB0BDE8F08FBAF84C
:101A6000E800002800F05981B0F1010900F155812A
:101A70001FFA89F00AEBC00021B2D0E92A870FFAD9
:101A800088F0884214DC22144FEA284393420FDC8A
:101A90000FFA85FC3EB28C440644B44508DC02EBE8
:101AA000254C03EB27429445DCBF0DB0BDE8F08F19
:101AB000884239DB4FEA284223149A4234DB0FFA7A
:101AC00087FC2EB284440E4466452DDB02EB274C86
:101AD00003EB2542624527DB0020ADF81800ADF886
:101AE0001C00ADF81A00ADF81E00BAF8E8001FFAA5
:101AF00089F70AF1A806B84240F20B8106EBC7014C
:101B0000884606A80DF0ADFDB6F84000401E80B234
:101B1000A6F84000B84240F2FC8006EBC001404607
:101B20000DF09FFD00F0F5B82AB28B1883426ADDF4
:101B30003BB203448B4266DD211401EB254C4FEA96
:101B400028439C455FDD03EB27438B425BDD002090
:101B5000ADF82000ADF82400ADF82200ADF8260065
:101B6000BAF8E8001FFA89FB0AF1A806584512D90D
:101B700006EBCB0108A800910DF073FDB6F840000C
:101B8000401E80B2A6F84000584504D906EBC001BB
:101B900000980DF066FD3BB2002B18BF5FEA2746A8
:101BA0007DD00FFA85FBBBF1000F18BF5FEA254718
:101BB00076D022B20FFA88FC6245B4BF1046604668
:101BC000864620144FEA28484045B4BF01464146A6
:101BD0005A44634412B21BB29A42D8BF1A463844E0
:101BE00003B208EB060000B28342C8BF18466EF38A
:101BF0000F04A2EB0E0262F30F05401A61F31F44BB
:101C000060F31F4585E039B2A3462E46002918BF70
:101C10005FEA274347D00FFA86FCCDF810C0BCF12D
:101C2000000F7BD05FEA264CCDF80CC076D00FFABF
:101C30008BFCCDF808C08445A8BF84464FEA2B4EE4
:101C4000CDF814C04FEA284CCDE900ECE645B8BF0A
:101C5000F446E646DDF810C0DDF808800844C444C8
:101C60000FFA8CFC00B28445D8BF8446E046DDF80C
:101C700000C0039860440FFA80FC0198184400B239
:101C80008445C8BF6046059BA0EB0E0063F30F0BB5
:101C9000A8EB03036EF31F4B63F30F0601E038E07C
:101CA00042E060F31F4628144243381401FB002031
:101CB00000EB400101EBC00116FB16F000EB8000C9
:101CC0004000814225DD0020ADF82800ADF82C0051
:101CD000ADF82A00ADF82E00BAF8E8001FFA89F531
:101CE0000AF1A804A84212D904EBC5010F460AA8BC
:101CF0000DF0B7FCB4F84000401E80B2A4F84000DC
:101D0000A84204D904EBC00138460DF0AAFC5C4699
:101D10003546B9F101097FF5ABAE00E00FE0BAF846
:101D2000E800082816D07DE068F30F044FEA284049
:101D300063F30F0560F31F4466F31F45E9E760F3A3
:101D40000F0B4FEA284061F30F0660F31F4B63F35C
:101D50001F46A8E70020ADF80000ADF80400ADF87C
:101D60000200ADF80600BAF8E8000AF1A806072854
:101D700012D906F138010F4668460DF072FCB6F82C
:101D80004000401E80B2A6F84000072804D906EBA8
:101D9000C00138460DF065FCDDE900010EB2002EF1
:101DA00018BF5FEA21493DD02FB2002F18BF5FEA6C
:101DB000254B2ED022B201B28A42B4BF94468C4643
:101DC0004FEA244800148045B4BF434603463A44D2
:101DD000314417B209B205E06C030020AA030020C9
:101DE000AC0300208F42D8BF0F4608EB0B014844DC
:101DF00009B202B29142C8BF0A466CF30F04A7EBC6
:101E00000C0060F30F05D01A63F31F4460F31F4505
:101E100008E060F30F04001466F30F0560F31F443D
:101E200069F31F45CDE90045BAF8E8200AF1A80199
:101E3000082A01D306F0A6FD01EBC200521CA1F84E
:101E4000402069460DF00DFC0DB0BDE8F08F2DE986
:101E5000F043002685B081460F463446FE48008890
:101E60000FFA80F8FD48008805B268460DF0F9FBCE
:101E7000BDF9001088452EDDBDF9040001EB000C12
:101E8000B44528DDBDF902006219824223DDBDF9A7
:101E900006300344A3421EDDB142D4BF35460D4691
:101EA000A042C8BF04460FFA8CF006EB080109B245
:101EB0008842A8BF0846401BADF8040018B211B212
:101EC0008842A8BF0846001BADF80050ADF80600D8
:101ED000ADF8024008E00020ADF80000ADF80400C5
:101EE000ADF80200ADF8060000980290019803904A
:101EF00002A938460DF0B5FBD9484068002804BF58
:101F000005B0BDE8F08399F82C1151B13946684607
:101F10000DF0A7FBDDE9001205B04846BDE8F0432F
:101F20008FE501688A6839469047CE4800680168A5
:101F30004A6905B03946BDE8F0431047C8484068D3
:101F4000002808BF7047026892691047C44840687B
:101F5000002808BF70470268D2691047C04840682F
:101F6000002808BF70470268126A10472DE9F04147
:101F7000BB4D04460026A86808B1017A19B194F84F
:101F80002D11E1B906E084F82D6101688968BDE88A
:101F9000F041084700281CBF007A00280FD068686D
:101FA00010B1016809698847A8680168C96888474D
:101FB0002068816A20468847012084F82D01B4F802
:101FC0008400002700280FDDE01990F8880030B168
:101FD000201DB9B250F821000168096D8847B4F896
:101FE00084007F1CB842EFDC80B2471E002FA8BFE0
:101FF00004F1880841DBE01990F88800D8BB201D67
:10200000B9B2221D50F821C0B4F884100020002974
:102010001DDD00BF52F82010614508BF014607D002
:1020200010E000BF02EB81035B6842F82130491CDD
:10203000B2F880309942B8BF1F29F3DB99B2491E2C
:10204000A2F88010B2F88010401C8142E2DCB4F8A3
:102050008410B8B281420AD92118401C91F8892015
:1020600081F88820B4F8841080B28142F4D8B4F8A2
:10207000840000F808607F1EBDD56868002808BF8E
:10208000BDE8F0810168496ABDE8F041084774483D
:102090004068002808BF70470268926A104770477E
:1020A0002DE9F04FA9B00026044680F82C11002934
:1020B0001EBFA0F8E86029B0BDE8F08FB4F8E800D2
:1020C000002804BF29B0BDE8F08F684608231A46EF
:1020D00065490DF0DBFADFF88881A0F84060B4F8BC
:1020E000E800B8F80050A84288BF1AAF1BD900BF5B
:1020F00004F1A80000EBC501E94638460DF0B1FA3D
:10210000BDF8400008286FD209EBC002401CADF8B2
:102110004000394610460DF0A4FA681C85B2B4F8A8
:10212000E8008542E4D34E480588B4F82A01A84265
:1021300088BF12AF12D900BF04F1EA0000EBC5015D
:1021400038460DF08EFADDE912122046FFF779FCD1
:10215000681C85B2B4F82A01A842EDD8414800684D
:1021600090F84400012841D03D480588B4F8E800C3
:10217000A84218D904EBC501D1E92A01CDE9120121
:10218000BDF84C0000281CBFBDF84E00002804D04C
:10219000206812A9C26A20469047681C85B2B4F82C
:1021A000E800A842E6D831480078002804BF29B0EA
:1021B000BDE8F08FA4F82A6129480588BDF84000E1
:1021C000A84287BFE8461EAE29B0BDE8F08F00BF29
:1021D00008EBC50104F1EA0730460DF042FAB7F802
:1021E00040000828C0F0EE8006F0CCFBDFF870C09D
:1021F000B4F8E8200027BCF80000824210DD00BFE0
:1022000004F1A80183B201EBC301B1F90230B1F9C5
:1022100006101944B942C8BF0F46401C8242EFDC89
:102220000E4800880F288CBFC00801201C90002099
:10223000ADF86000ADF86400ADF86200ADF866007E
:10224000002FC8BF0DF158087CDD064D28680168D5
:10225000D1F8801088470BE0AA030020AC030020CF
:102260006C030020B403002051F30008A5030020F4
:10227000BDF96220BDF9661011441C9A0A448242DD
:10228000C8BF874203DD8142C8BF00297CDD0BB295
:10229000834201DC874200DA3846DFF8C8C2421ABE
:1022A0000020BCF800C0ADF88000ADF884C020A9C3
:1022B000ADF88230ADF8862018A80DF0D2F9AA4802
:1022C0000588B4F8E800A8426DD900BF04F1A80061
:1022D00000EBC50140460DF0C4F9BDF96020BDF921
:1022E0006400BDF9581002EB000C8C454DDDBDF9C2
:1022F0005C0001EB0009914547DDBDF96230BDF995
:10230000660003EB000ABDF95A0082453DDDBDF9C8
:102310005EB083449B4538DD9142D8BF1146984258
:10232000D8BF18460FFA89F20FFA8CF39A42A8BF69
:102330001A46521AADF85C200FFA8BF20FFA8AF3A4
:102340009A4200E037E0A8BF1A46121AADF85810BA
:10235000ADF85E20ADF85A00DDE91601CDE92201A5
:10236000BDF88C0000281CBFBDF88E00002804D0EA
:10237000206822A9C26A20469047681C85B2B4F83A
:10238000E800A842A2D80EE008E0ADF85860ADF829
:102390005C60ADF85A60ADF85E60DDE72868016802
:1023A000CA6F01219047BDF96200BDF9661008446B
:1023B000B842FFF64AAF6D4800680168C9698847AE
:1023C000F1E600BF07EBC002401CA7F84000314611
:1023D00010460DF046F9681C85B2BDF840008542F4
:1023E000FFF4F6AE29B0BDE8F08F10B5B0F8843038
:1023F0000022002B13D900BF00F1040C5CF822C0AE
:102400008C4508D1811891F88800FF283CBF401CFA
:1024100081F8880010BD521C92B29342ECD8202B58
:1024200008D21A180123001D82F88830B0F88020E5
:10243000202A01D306F0A6FA9300521CA0F88020AF
:10244000C15010BD0021A0F88410C0F88810C0F859
:102450008C10C0F89010C0F89410C0F89810C0F814
:102460009C10C0F8A010C0F8A4107047B0F88430D9
:102470000022002B98BF704700F1040C5CF822C0CA
:102480008C450DD100EB020C9CF888C0BCF1000F0C
:1024900006D0104490F88810491E80F888107047C4
:1024A000521C92B29342E7D87047B0F8840070474C
:1024B000B0F884300022002B0ED900BF00F1040CCC
:1024C0005CF822C08C4503D1104490F88800704716
:1024D000521C92B29342F1D80020704770B5244943
:1024E00001600025A0F884500823A8301A4621492D
:1024F0000DF0CCF8A0F84050082342301A461D4990
:102500000DF0C4F8A0F8405080F84250A0F1EA0461
:1025100080F843501849194805F0A2F8124E0028D7
:1025200018BF358006D14FF4806030800220706083
:1025300004F0F0F8F5607560B560A4F88450C4F854
:102540008850C4F88C50C4F89050C4F89450C4F823
:102550009850C4F89C50C4F8A0502046C4F8A45029
:1025600070BD0000AA0300206C030020B40300200B
:10257000AC1C010851F30008CDB5E8B5C2A507F4BD
:10258000FE4A10B5936873B101884FF6FF7081421F
:1025900024BF002010BDA1F57F40FE3805D1F848CA
:1025A0000068006C10BD06F0EDF91069002819BF35
:1025B00050F82100002801EB810053F8200010BDE5
:1025C00002884FF6FE7082421CD2EC494888824253
:1025D00018D28B6802EB820003EB80035868002856
:1025E0001ABF09690029704751F82210002908BF55
:1025F000704718895A8950434000C01C20F00300DE
:10260000084470470020704710B5DC4900888B688B
:102610009BB14A88904206D200EB800003EB800019
:10262000C07C400910BD8B881344984205D2C9680C
:10263000801A01EB0010007B10BDA0F57F41FE3930
:1026400019D1CF48006880680168096A8847042862
:1026500004BF062010BD08DC012804BF032010BD04
:10266000022804BF052010BD05E0102803D018285B
:1026700004BF012010BD002010BDC04910B58B68FB
:1026800093B100884A8890423CBF00EB800003EB86
:10269000800007D38B881344984207D2C968801AF8
:1026A00001EB0010008910BD06F06CF9A0F57F4128
:1026B000FE3912BF0020B348008810BDAF4910B5E5
:1026C0008B6893B100884A8890423CBF00EB800041
:1026D00003EB800007D38B881344984207D2C96864
:1026E000801A01EB0010408910BD06F04BF9A0F5EF
:1026F0007F41FE3912BF0020A348008810BD9F4AC9
:1027000010B5D2F808C0BCF1000F14D00988538866
:10271000994212D201EB81010CEB8101B1F80CC09E
:10272000CB890A8A498AA0F800C04380C1F30C0112
:102730008280C18010BD06F025F9B2F804C09C4427
:10274000614508D2D268C91A02EB01110A68026019
:102750004968416010BDA1F57F424FF0000CFE3A80
:10276000634609D187490A8887490988A0F800C0CB
:1027700043808280C18010BDA0F800C00022438049
:102780008280C28010BD7D498B6833B300884A883F
:1027900090420ED200EB800003EB8000018A028998
:1027A000914218D3418A4089C1F30C01814212D36E
:1027B00013E08B88134498420FD2C968801A01EB4A
:1027C0000010B0F904100289914204DBB0F9061040
:1027D0004089814201DA0120704700207047674834
:1027E0000169002908BF704770B4438882884FF69A
:1027F000FE7513445C1C2C404FEA830C15016400E9
:1028000001EB0C021119C1602944C0E90521002126
:102810000180066A002BA6EB0C0CACEB040CACEBB5
:10282000050CC0F81CC0C1801CBF4FF0000C4FF657
:10283000FF7408D005695B1E45F82C1022F8024B86
:102840000CF1010CF6D18388002B04BF70BC7047DB
:10285000C268921E13F0010F18BF02F8101F808883
:10286000400804BF70BC7047117402F8201F401E5E
:10287000FAD170BC7047414BD3F818C0BCF1000FBF
:1028800018BF7047002908BF704710B592B29A80F0
:10289000B3F802C094440CEB4C0C4FEA4C0C0CEB1C
:1028A00002128A4201D306F06DF819621861BDE880
:1028B000104094E770B5DFF8C4C0049CDCF8085001
:1028C000002D18BF70BDCCF80800ACF80210DCF881
:1028D0001800002818BF70BD002B08BF70BDA0B243
:1028E000014401EB4101ACF80400490001EB001088
:1028F000984201D306F046F8CCF82030CCF81020EE
:10290000BDE870406BE72DE9F04789464FF6FE7150
:10291000884224BF0020BDE8F08700EB8006174CFA
:10292000174FA26802EB86000189438901FB03F57A
:10293000C17C02233868B3EB511F0CD10168AB0096
:1029400052F82620D1F834C04946E047002818BF85
:102950000120BDE8F08711F0E00F1AD00123B3EB9E
:10296000511F3CD105EB4501C91C21F0030301684F
:1029700052F82620D1F834C0A16907E07C0300207A
:10298000B4030020AA030020AC030020BDE8F047F8
:102990006047032101EB450121F00308016852F86B
:1029A00026204346D1F834C04946E047002808BFF6
:1029B000BDE8F087A16801EB86014A68002A08BFDC
:1029C000BDE8F087E81C20F00303386809EB080134
:1029D000D0F800C0DCF834C0BDE8F047604705F02F
:1029E000D1FF10B54FF6FE7188422CD2FE494A88BD
:1029F000904210D2896800EB800001EB80031A89B5
:102A00005989D87C5B684009002B14BF4FF0010C3A
:102A10004FF0000C08E0C968801A01EB00104FF07D
:102A2000000C02894189808902FB01F3022804BF5E
:102A3000980010BD48B1012815D0062819D00528E6
:102A40001ED0032823D005F09DFF032000EB430098
:102A500020F00301BCF1000F1ABFD81C20F00300C6
:102A60000020084410BD03EB4300C01C20F003000D
:102A700010BD501C40084843C01C20F0030010BD8E
:102A8000D01C80084843C01C20F0030010BDD01D9E
:102A9000C0084843C01C20F0030010BD2DE9F04FD2
:102AA000D14883B04FF6FE73818842884FEA011BFC
:102AB00002EB01094FEA8902019209F101021A4071
:102AC000520000920169019A4FF000081144009AE7
:102AD0004646114401EB0B04A2465F1C40E0C2488D
:102AE000006950F82500002808BF21F8167035D07D
:102AF0002846FFF776FFDFF8F0E28446DEF81000A4
:102B000050F82500844224D04FEA9C0100EB81015B
:102B10000B1A9910002912DD011F201F13F0040F5A
:102B200003D051F8042F40F8042FDA1007D04B6877
:102B3000436051F8083F40F8083F521EF7D1DEF8D5
:102B4000100040F82540DEF8140020F8167020F838
:102B5000185008F1010064441FFA80F8701C86B216
:102B60004E4505D2A048416931F81650BD42B6D154
:102B70009D488461A0F80080026A0199521A009968
:102B8000511AA1EB0B01A4EB0A02891AC16103B02F
:102B9000BDE8F08F70B5944C0546A069002832D08E
:102BA0006088A1880844A8422DD9E088002818BF71
:102BB000FFF774FF206950F8250000281CBF012092
:102BC00070BD2846FFF70DFF0646E06986421AD819
:102BD0006088854204D22846A169FFF794FE90B12F
:102BE0002169A06941F82500E069801BE061A069C6
:102BF0003044A0612188606920F811502088401C71
:102C00002080012070BD002070BD77498A6932B1F3
:102C1000096951F8200000281CBF012070470020DE
:102C200070472DE9F041704E0D460446B169306998
:102C3000AC420AD100291FBF50F82400002801200F
:102C4000BDE8F0810020BDE8F08100291CBF71883B
:102C50008D4238BF8C42F5D250F824100029F1D0B3
:102C600050F825000028EDD12046FFF7BAFE0746B0
:102C70002846FFF7B6FE8742E4D1306950F82410A9
:102C800040F82510002140F8241050F8251028465F
:102C9000FFF739FE030014D00023B6F800C0184631
:102CA000BCF1000F88BF71690BD900BF31F810204B
:102CB000A24203D121F81050012302E0401C6045DC
:102CC000F4D31846BDE8F08170B5474CA16909B34B
:102CD000216951F82020EAB1002241F82020E18842
:102CE000491CE1802188626902EB410232F8022C22
:102CF000824229D1002918BF4FF6FF7524D02088C1
:102D0000616901EB4000216930F8020C51F8201094
:102D1000D1B901E0002070BDFFF763FEA169091A77
:102D2000A161E1690844E0612088616901EB40002C
:102D300020F8025C2088401E0004000C2080E188FE
:102D4000A1F10101E180DAD1012070BD10B50021AF
:102D50004FF6FE72904201D305F014FE224A9369A9
:102D6000002B1CBF116951F82010084610BD2DE939
:102D7000F0411D4C01260025608800283BD9A06940
:102D800000283BD06088A1880844A84236D9E08852
:102D9000002818BFFFF782FE2946206950F8250059
:102DA000F8B90846FFF71DFE0746E069874225D8B7
:102DB000618828468D4203D2A169FFF7A4FDE8B1DE
:102DC0002269A16942F82510E069C01BE061A06991
:102DD0003844A0612288616921F812502088401C83
:102DE000208006F0010601E07C030020681C85B20B
:102DF00060888542C3D33046BDE8F08105F0C2FD4E
:102E0000F0B5444D84462846AE880024C06885B09D
:102E1000002E07D900EB04139B7B002B1CBF641C06
:102E2000B442F7D3B44202BF4FF6FF7005B0F0BD15
:102E300000EB04100123A0F808C041818281002624
:102E40008373072A1BD2DFE802F004040F04040492
:102E500004000027ADF804C0ADF80070ADF806100E
:102E6000ADF80270694608E0ADF80860ADF80C6096
:102E700002A9ADF80A60ADF80E600CF0F2FB6888AC
:102E8000204487B23846FFF785FE00281EBF38462B
:102E900005B0F0BDE86800EB0410867305B04FF68E
:102EA000FF70F0BD1B494A8890420CD38B881344B5
:102EB000834208D9C968821A01EB02118A7B12B1D8
:102EC00000228A7300E70020704712494A88904226
:102ED00007D38B881A4490423EBF096951F82000FD
:102EE0007047002070470B4A10B5538898420ED3A4
:102EF000B2F804C09C44844509D9D268C01A02EBD8
:102F00000010827B1AB10CF0ACFB012010BD002038
:102F100010BD00007C03002070B4002691F82CC086
:102F200066F30F0366F30F0266F31F4366F31F4257
:102F3000BCF1000F04D191F826C0BCF1FF0F06D1FF
:102F4000B1F808C049896CF30F0261F31F420360B6
:102F5000426070BC704710B582B0044668460CF001
:102F600080FB20686946426A20469047064894F8EC
:102F70002630A26A006880680168D1F81CC06946E2
:102F8000E04702B010BD0000B40300202DE9F04777
:102F9000074690F82C0088B00E46002819BF386B01
:102FA0000390F88DADF80C000024254603A8FFF728
:102FB00064FB0FFA80F903A8FFF780FB03B2ADF8BA
:102FC0001840ADF81C90ADF81A50ADF81E30B6F9A7
:102FD0000000B6F90410002200EB010C4FF00108CC
:102FE000BCF1000FC4BFA144814562DDB6F90210F7
:102FF000B6F906A08A44AA45C4BF2B448B4258DDCB
:103000008442D8BF04468D42D8BF0D460FFA89F0DE
:103010000FFA8CF18842A8BF0846001BADF81C00CF
:1030200019B27088F388184400B28142B8BF0846CC
:10303000401BADF81840ADF81E00ADF81A503C48E2
:10304000006800283ED0BDF80C00A0F57F41FF3994
:1030500019BFBDF81C00002808B0BDE8F087BDF816
:103060001E00002804BF08B0BDE8F087ADF81020AE
:10307000ADF81420ADF81220ADF81620386804A978
:10308000426A384690472B4897F8321006AA0068E3
:10309000BDF912308068CDE90021CDF808800168C3
:1030A000BDF91020D1F80CC003A9E04708B0BDE875
:1030B000F087ADF81820ADF81C20ADF81A20ADF857
:1030C0001E20BCE705F05EFC10B504460888E085CC
:1030D0001088208604F13000FFF7CFFA208104F138
:1030E0003000FFF7EBFA608110BD10B5044691F88F
:1030F000320084B0FF2806D2002323806380A3809F
:10310000E38004B010BD91F82C0038B1303168462E
:10311000FFF7F5FA00982060019806E02E3102A82A
:10312000FFF7EDFA029820600398606004B010BDCC
:1031300084030020B403002010B400248480C480E1
:10314000048144818481C481048244824461846115
:103150000122C46180F82520846280F82C4080F828
:1031600024204FF6FF73C3850386FF2280F83220A8
:10317000924A0260214683868163C16380F84010D1
:1031800080F8411010BC70472DE9F04F93B00E4607
:103190000446FFF7FBFEDFF82882D8F8001000296C
:1031A00000F0EF80DFF81C92A08EB9F8002090426A
:1031B00080F0E780844A11F81010126852F82170EC
:1031C000002F19BFA0F57F41B1F1FF0113B0BDE899
:1031D000F08F94F841000025ADF80850ADF80C5080
:1031E000ADF80A50ADF80E5094F8401002AA29B17B
:1031F00001291CD0022901D0032918D0B4F90A10E2
:10320000B4F808C0091A01EBD1714FF0000A41F37C
:103210004F01ADF838A0ADF83CC00EABADF83A1098
:10322000ADF83E00104619460CF01BFA17E0B4F951
:103230000810B4F80AC0091A01EBD17141F34F012B
:10324000ADF83010ADF834000CAB4FF0000AADF81B
:1032500032A0ADF836C0104619460CF002FA02A9A9
:1032600008A80CF0FEF9B6F90010B6F9040001EB5D
:10327000000CBDF9200084457DDDBDF9242000EB64
:10328000020A8A457FDDB6F902B0B6F906200BEBDB
:103290000203BDF92220934275DDBDF926301344A7
:1032A0005B4570DD8842D8BF08465A45D8BF5A46AC
:1032B0000FFA8AF10FFA8CFC6145A8BF6146091A22
:1032C000ADF8241019B27388B6F806C063441BB277
:1032D0009942A8BF1946891AADF82000ADF826100A
:1032E000ADF82220DDE90801CDE90401BDF81400A4
:1032F000002819BFBDF81600002813B0BDE8F08FF4
:10330000BDF81000BDF80810401AADF81000BDF867
:103310001200BDF80A10401AADF81200206802A988
:10332000426A2046904794F82C00002814BFE06BB6
:10333000A06B94F83230D8F8002012B3A18EB9F8FF
:1033400000C061451DD202EB410194F840604A780B
:103350008DF8263002F00301C2F381028DF81C10B3
:103360008DF81D20ADF82450069708908DF81E604A
:103370008DF8275000E006E08DF82850A08E6045BB
:103380000AD305F0FFFAADF82050ADF82450ADF89F
:103390002250ADF82650A5E70C4A06A904AB1268E6
:1033A00052F820200A4800688068CDE90012DDE963
:1033B000021201F0C1FC13B0BDE8F08FCC1D010872
:1033C000B8030020C4030020C003002048030020ED
:1033D000B403002070B506461B4814460D4600682D
:1033E000F0B180680168096A884710281AD0182847
:1033F00024D036215B2271436A4301EB420104EB86
:10340000440202EB04121144042804BF080B70BDEF
:10341000022804BF880B70BD012804BFC80B70BD13
:1034200005F0B0FA4FF478404FF4FC6100EA062052
:1034300001EAC501084340EAD40070BD300440EA07
:103440000520204370BD0000B403002010B5814268
:1034500015D04A699AB90022C1E90502826A002A98
:1034600004BF816210BD906928B18A4207D002462C
:1034700080690028F9D18A421CBF916110BD05F016
:1034800081FA826A002A08BF704700238A4207D166
:103490004B618A69002A14BF8262836206D1704739
:1034A0009069884204D1886990614B618B61704753
:1034B0000200F5D17047816A002914BF00227047CD
:1034C0008B6983624A618A61816A0029F8D17047F9
:1034D00000218162704702460020926A002A08BFDC
:1034E0007047002818BF70478A420CBF0120002097
:1034F0009269F3E7836A2BB1002904BF936182626A
:1035000009D003E001684B6E114618478B4204D185
:10351000996991619A61506170479B69002BF5D15F
:1035200070472DE9F0410E4690F824101F461546CD
:10353000002918BF3860846A002C08BFBDE8F081FC
:1035400094F82500E0B1B4F90410201DB14217DC55
:10355000B0F904208B189E4212DAB0F9022095428D
:103560000EDBB0F906001318AB4209DD701A01B288
:10357000A81A02B220683B46D0F81CC02046E0479B
:10358000A469002CDCD1BDE8F08190F82520002A48
:1035900008BF70472DE9F043846A87B0002C04BF50
:1035A00007B0BDE8F08304A80CF05BF86F46002676
:1035B00094F82500002860D0251D04A938460CF099
:1035C00050F8B5F90020B5F90400BDF9001002EB80
:1035D000000C8C4557DDBDF9040001EB0009914555
:1035E00051DDB5F90230B5F9060003EB0008BDF96D
:1035F0000200804547DDBDF906808044984542DDE4
:103600009142D8BF11469842D8BF18460FFA89F2A6
:103610000FFA8CF39A42A8BF1A46521AADF804204A
:103620006A88EB880FFA88FC1A4412B29445B8BF36
:103630006246121AADF80010ADF80620ADF802008F
:10364000DDE90001CDE90201BDF80C0000281CBF36
:10365000BDF80E00002810D0BDF80800A188401A5F
:10366000ADF80800BDF80A00E188401AADF80A007C
:10367000206802A9826820469047A469002C97D14F
:1036800007B0BDE8F083ADF80060ADF80460ADF8B8
:103690000260ADF80660D3E74FF0000CA0F800C060
:1036A000A0F802C0A0F804C0A0F806C0704770B52A
:1036B000846A0D46002C08BF70BD286821468268C8
:1036C00028469047A469002CF7D170BD2DE9F04F32
:1036D0000026D1F828C066F30F0366F30F0266F3E5
:1036E0001F4366F31F42BCF1000F4BD0BCF90840EA
:1036F0000CF10401002C1CBFB1F90650002D3CD088
:103700000FFA82FABAF1000F18BF5FEA224B28D0F5
:10371000B1F900800FFA83F9C145B4BF4E46464661
:103720001F14B1F902E07745B4BF39467146D14460
:1037300044440FFA89F924B2A145D8BFA14607EB4A
:103740000B04754424B22DB2AC42D8BF2C4666F3AC
:103750000F0361F31F43A9EB060565F30F02611A1E
:1037600009E00C8864F30F034C8864F31F438C88D2
:10377000C98864F30F0261F31F42DCF818C0BCF182
:10378000000FB3D103604260BDE8F08F70B5846A6A
:1037900015460E46002C08BF70BD20682A463146EB
:1037A000436D20469847A469002CF6D170BD2DE9E1
:1037B000F04F0F4690F825108DB0914600291FBF9D
:1037C000846A002C0DF12008002604BF0DB0BDE86E
:1037D000F08F00BF94F82500002861D0251D3946E0
:1037E00040460BF03EFFB5F90030B5F904001A1859
:1037F000BDF92000824259DDBDF9241000EB010C17
:103800009C4553DDB5F90210B5F906A001EB0A0B92
:10381000BDF922A0D34549DDBDF926B0D3448B457F
:1038200044DD9842D8BF18468A45C8BF51460FFAB2
:103830008CF312B29342A8BF13461A1AADF8242093
:103840006B88B5F806C00FFA8BF263441BB29A423C
:10385000A8BF1A46521AADF82000ADF82620ADF8E0
:10386000221000BFDDE90801CDE90001BDF8040028
:1038700000281CBFBDF80600002811D0BDF80000CC
:10388000A1884A46401AADF80000BDF80200E18860
:10389000401AADF8020020686946036E204698473A
:1038A000A469002C96D10DB0BDE8F08FADF8206072
:1038B000ADF82460ADF82260ADF82660D2E70000D4
:1038C000824B0360C0E901120021C16001617047B1
:1038D000D0E9031081420CBF012000207047D0E9DD
:1038E0000321891A0029DCBF806801440129D4BF63
:1038F00001200020704710B50446D4E90320801A47
:103900000028DCBFA368184401280FD96068C2EB07
:10391000C20200EB8200192205F0DBF8E068A16822
:10392000401C814298BF401AE06010BD05F02AF8A3
:1039300010B50446006801682046884708B105F0C4
:1039400021F82069A168401C814298BF401A20617B
:1039500010BD41680069C0EBC00001EB80007047FA
:1039600070B50D460446606801684A6890470028B3
:10397000F9D1574E30680168896E88470BF02CFAF0
:10398000606801688A68294690472068816A2046F5
:10399000884730680168496EBDE87040084710B537
:1039A00004464068016809688847002818BF10BDB0
:1039B000607A002808BF10BD207A002818BF10BD0B
:1039C0002068016A2046BDE8104008474068016849
:1039D00009680847406801684968084770B50446A7
:1039E000012020726068016889698847054600687F
:1039F000202811D00ADC01280ED002282FD004285C
:103A000015D008281FD000BF04F0BCFF40281CBF01
:103A10008028B0F5807FF7D12068816B20468847E9
:103A200020682946C26A2046BDE8704010472068D9
:103A3000297E426B2046904720682946C26A20466C
:103A4000BDE8704010472068297E426B20469047B1
:103A500020682946026B2046BDE870401047206868
:103A6000816B2046884720682946026B2046BDE8C6
:103A70007040104710B504464068016809688847DF
:103A800038B9207A28B16068016849698847002000
:103A90002072606801680968884718B1BDE8104065
:103AA0000BF0A2B92068016A2046BDE81040084723
:103AB00001680969084770477047704710B50BF0F7
:103AC00083F9BDE810400BF075B90000C01E010875
:103AD000B4030020F0B50D4607468088098885B0FC
:103AE000084406B22E80F8886988084404B26C80C5
:103AF000391D68460BF0B5FDB5F904003318BDF962
:103B00000000834240DDBDF9041000EB010CB44518
:103B10003ADDB5F906106218BDF902108A4233DDAC
:103B2000BDF906200A44A2422EDDB042C8BF0646B7
:103B3000A142C8BF0C460FFA8CF118B28142B8BF3F
:103B40000846801BADF8040011B26888EA8810446A
:103B500000B28142B8BF0846001BADF80060ADF866
:103B60000600ADF80240009802900198039002A967
:103B700028460BF076FD786980B101680A6905B0C6
:103B80002946BDE8F04010470020ADF80000ADF830
:103B90000400ADF80200ADF80600E4E7FDF71EFFF3
:103BA0000168CA6A05B02946BDE8F040104700B573
:103BB000D0E9011283B0CDE900120021ADF8001068
:103BC000ADF8021001680A696946904703B000BD6C
:103BD00030B50546086883B00C46C2686846904711
:103BE00020686946426A20469047009828600198FC
:103BF000686003B030BD2DE9F00382880B88002691
:103C00001A4414B20C80C2884B881A440FFA82FC02
:103C1000A1F802C0B0F90420B0F90850031D5719EB
:103C2000A74243DDB1F9045004EB050890453DDDA2
:103C3000B3F90250B3F90690A944E14536DDB1F974
:103C40000690E144A94531DD9442C8BF2246AC4507
:103C5000D8BFAC460FFA88F43DB2AC42A8BF2C46A0
:103C6000A41A8C804D88CC882C445D88DB8824B2D3
:103C70002B441BB29C42A8BF1C46A4EB0C03CB8078
:103C80000A80A1F802C08A88002A19BFCA88002ABF
:103C9000BDE8F00370474069002804BFBDE8F003A9
:103CA00070470268126ABDE8F00310470E804E802C
:103CB0008E80CE80BDE8F003704710B50A4682B012
:103CC0000446098950894FF0000CADF800C0ADF8EA
:103CD0000410ADF802C0ADF8060010686946436AEA
:103CE00010469847009820600198606002B010BDAF
:103CF00082880B881A440A80C2884B881A444A80FA
:103D00004069002808BF70470268526A104710B522
:103D1000044684B051EA020004BF04B010BDD4E9E7
:103D20000103CDE90003E088104402B2A0880844F2
:103D300001B22068436B20469847D4E90101CDE9E0
:103D40000201606950B101680A696946904760697B
:103D500001680A6902A9904704B010BDFDF73EFE54
:103D60000168CA6A69469047FDF738FE0168CA6A69
:103D700002A9904704B010BD0FB4B34910B5B24AC0
:103D8000496804ABD2F800C000EB610011F0010FEC
:103D900002D0016851F80CC00021039AE04710BC22
:103DA0005DF814FB0FB4A84A10B5DFF89CC2526846
:103DB00005ABDCF800C000EB620012F0010F02D08E
:103DC000026852F80CC0049AE04710BC5DF814FB7E
:103DD00010B50268D2689047002808BF10BD417B2B
:103DE00011F0800118BF4FF48071807A084310BD34
:103DF0000FB430B587B005460CAC684603F0C5FC7F
:103E0000224668460B9903F0E4FCFF240021684633
:103E100003F00EFD010020D00A2918D02868C268DE
:103E20002846904798B1417B11F0400218BF4FF4EB
:103E30007E4211F0200118BF4FF480711143007AC7
:103E400008432979081AC0B2A04238BF04460021AD
:103E5000684603F0EDFC0100DED107B0204630BC1F
:103E60005DF814FB0FB430B587B005460CAC68465E
:103E700003F08BFC224668460B9903F0AAFC002451
:103E80002146684603F0D4FC010029D00A2921D03C
:103E90002868C26828469047E0B1417B11F0400392
:103EA00018BF4FF47E4311F0200218BF4FF4807208
:103EB0001A43037A1A43AB8812B29A1A11F010010E
:103EC00018BF4FF48071C0790843104480B2A042FB
:103ED000C8BF04B20021684603F0AAFC0100D5D196
:103EE00007B0A0B230BC5DF814FB0FB410B586B0BB
:103EF0000AAC684603F049FC22466846099903F07B
:103F000068FC0124684603F088FC40B10A2804BF1D
:103F1000601C04B2684603F080FC0028F6D106B0AD
:103F2000A0B210BC5DF814FB2DE9F04786B08046C6
:103F30001C4615468A46684603F027FC2246294659
:103F4000684603F046FC00252F462C46A146514604
:103F5000684603F06DFC040018BF0A2C20D0D8F886
:103F600000002146C268404690470600EED0D8F8CF
:103F70000000B4883246836B494640469847717BBF
:103F800011F0800118BF4FF48071B27A11430844D8
:103F9000284485B2002CD9D106B03846BDE8F08758
:103FA000BD4288BF2F460025F4E72DE9FF4F97B0AB
:103FB0001D4614468B4608A803F0E7FB2A46214617
:103FC00008A803F006FC0EA803F0DFFB2A462146F2
:103FD0000EA803F0FEFB0024594608A803F028FCB5
:103FE000DFF86880DFF868A0ADF85000002508AE63
:103FF0000EAF47F6FF7900BFADF85450D8F8000077
:104000005B468068CDE905950795DAE90012CDE9B0
:10401000031214A9CDE90016029715A9179A01F009
:10402000B3FDBDF95410A142C8BF8CB218B15946B6
:104030000EA803F0FDFBBDF850000028DCD11BB03A
:104040002046BDE8F08F00005C030020B403002090
:104050001C190108054908607047014603480068BB
:10406000002808BF7047026812681047A0030020AC
:1040700010B504460AF058FE60680168C9688847B0
:10408000E0680168896888472068016E2046BDE8BD
:104090001040084704460068C16E204688472068E3
:1040A000416E2046884700BF0AF072FE2068C16D4D
:1040B00020468847F8E7012180F8471080F859101A
:1040C0007047012180F8471080F859107047416807
:1040D00001224A724068016809690847406801681E
:1040E0008968084770B5FF4D0446687848B960682C
:1040F000FFF76CFC002818BF616802D04A7A002ADA
:10410000FCD00AF061FE687840B12068816A2046E0
:104110008847A16B884204BFE06B70BDA06B70BD87
:104120000AF048BE704708467047002B04BF0120C4
:10413000704730B4D007B0EBC17F18D0B3F1004F57
:10414000A3F1010007D300BF12F8013B01F8013BC6
:10415000401EF9D274E0B0F1FF3F71DD12F8013B6F
:10416000401E01F8013BB0F1FF3FF7DC68E012F0C0
:10417000010F04D012F8010B01F8010B5B1E0124A2
:10418000012B27D99007B0EB817F1BD0B3F1004FF3
:1041900008D300BF32F8020B9B1E21F8020B012B43
:1041A000F8D817E003EBD37C012004EB6C0C05E09E
:1041B00032F8025B9B1E21F8025B401C8445F7DC51
:1041C000012B07D912F0030F04D032F8020B21F8AB
:1041D000020B9B1EB3F1004F08D300BF52F8040B33
:1041E0001B1F41F8040B032BF8D81CE00120DD173E
:1041F00003EB957C04EBAC0C06E000BF52F8044BDB
:104200001B1F41F8044B401C8445F7DCB3F1004F01
:1042100009D3581E33B100BF12F8013B01F8013B2E
:10422000401EF9D20CE0581EB0F1FF3F08DD00BF80
:1042300012F8013B401E01F8013BB0F1FF3FF7DCF3
:1042400030BC0120704770472DE9F041A54F0E4664
:104250001C463869154680680168096A8847102835
:10426000788900FB05600EBF04EB400000EB4000C6
:104270002044BDE8F0812DE9F04788B00646DDE92D
:1042800012C0DDE9109800240594FF2834BF0424EF
:104290000124CDE90041934CADF80C90ADF80E80AF
:1042A000ADF810C08DF818006089ADF81200607884
:1042B00092461F46354640B12868816A3046884795
:1042C000A96B884208BFED6B00D0AD6B2069806898
:1042D0000168096A88471028608900FB07A00EBFA3
:1042E00005EB400000EB400028440290B9F1000FBC
:1042F00018BFB8F1000F0ED03068816B3046884788
:104300000099084207D0706801684A68694690477A
:1043100008B0BDE8F08704F035FB2DE9F04788B020
:104320008046DDE912C0DDE910A900240594FF28CC
:1043300034BF40242024CDE900416A4DADF80CA0E3
:10434000ADF80E90ADF810C08DF8180068781746DB
:104350001E46444640B12068816A40468847A16BAA
:10436000884208BFE46B00D0A46B286980680168AC
:10437000096A88471028688900FB06700EBF04EBA5
:10438000400000EB4000204402906889ADF8120024
:10439000BAF1000F18BFB9F1000F10D0D8F8000023
:1043A000816B404688470099084208D0D8F804003D
:1043B00001684A686946904708B0BDE8F08704F094
:1043C000E1FA2DE9F04F87B08346DDE91184DDE99C
:1043D00014C00025DDF840900595424DDDF84CA055
:1043E000CDE90001ADF80C90ADF80E80ADF81040AD
:1043F0008DF818C0687817461E465C4640B12068A4
:10440000816A58468847A16B884208BFE46B00D098
:10441000A46B286980680168096A88471028688940
:1044200000FB06700EBF04EB400000EB4000204490
:1044300002906889ADF81200B9F1000F18BFB8F109
:10444000000F12D0DBF80000816B584688470099B6
:1044500008420AD0CDF814A0DBF8040001684A68CD
:104460006946904707B0BDE8F08F04F08BFA2DE95C
:10447000FF4F87B04FF00008DDF85890DDF850A0EE
:104480008346CDF81480B9F1FF0F34BF0820022015
:104490001746144DCDE9000868781E465C4640B1C9
:1044A0002068816A58468847A16B884208BFE46B40
:1044B00000D0A46B286980680168096A88471028C1
:1044C000688900FB06700EBF04EB400000EB400063
:1044D00020440290ADF80CA01598ADF80E00ADF890
:1044E000108001E0A40300206889ADF8120008984C
:1044F00005908DF81890DBF80000816B58468847CE
:104500000099084208D0DBF8040001684A6869464F
:1045100090470BB0BDE8F08F04F034FA8164183096
:1045200002F0F0BF2DE9F043F24C064687B0A078C8
:104530001746002834D000200590012000903068F4
:104540001FFA81F94FEA1148816A304688470546CB
:10455000206980680168096A88471028608900FB23
:1045600008900EBF05EB400000EB4000284401908E
:10457000306C0290ADF80C70380CADF80E0060890C
:10458000ADF81000ADF81200FF208DF8180070682B
:1045900001684A6869469047306C07B0BDE8F0830F
:1045A00004F0F0F92DE9F04F87B0074600200590A0
:1045B0000120009038681FFA81FB4FEA1149816A97
:1045C00098461646DDF840A038468847C94D04464F
:1045D000286980680168096A88471028688900FB93
:1045E00009B00EBF04EB400000EB40002044CDE9D1
:1045F0000108ADF80C60300CADF80E006889ADF81C
:104600001000FF20ADF812A08DF81800786801683E
:104610004A686946904707B04046BDE8F08F10B53C
:10462000044690F85A00002808BF10BD02200AF086
:104630008EFE002084F85A0084F85900AD48407876
:1046400040B12068816A20468847A16B884208BF34
:10465000E16B00D0A16B2068D0F890202046BDE827
:104660001040104710B504464FF0030059B10AF04E
:104670006BFE2069002808BF10BD01684A69BDE8CB
:104680001040012110470AF061FE2069002808BF90
:1046900010BD01684A69BDE810400021104700695B
:1046A000002808BF7047016809690847F0B504464B
:1046B000006885B0D0F88810204688478D4F0026C6
:1046C000002800F0A88001200AF03EFE94F8560071
:1046D00084F8570084F8566084F8476094F86500C1
:1046E00030B12068D0F89C102046884784F8656077
:1046F00094F84610606800290CBF01210021417226
:104700000125FD70FDF76AF901680A6B01219047E8
:1047100094F85700002808BF84F85750FDF75EF959
:10472000016849698847A06C01680969884794F85D
:104730005700401EC0B284F8570094F85810002962
:1047400018BF0028EAD13879401C40B2387194F97A
:104750005410814214DC3E71E06802AA0168CB6803
:1047600001A998470028206806D0DDE90112D0F899
:1047700094302046984703E0D0F8981020468847A8
:104780008DF80060606950B10168CA686946904759
:1047900028B1A06C0168CA689DF80010904704F128
:1047A000180002F0B1FE94F85C0000282DD02069BA
:1047B0000168096988470546206E002808BF2566FC
:1047C000206E4D49281A88421FD9206901688969DD
:1047D00088470146206E494A281AA2FB002040095A
:1047E000B1FBF0F00028D8BF642006DD6428ACBF20
:1047F00084F85560C0F1640001DA84F8550020693E
:104800000168CA69002190472566FDF7E7F801684D
:104810000A6B002190472068D0F88C10204688470A
:1048200001200AF093FDFE7005B0F0BD31494978D2
:1048300000291BBF90F85A00002801200020704773
:1048400010B50446406801688968884794F85900A3
:1048500000281CBF012084F85A0010BD10B584B098
:104860000446CDE9021202A803F057FD02A803A9ED
:1048700002F0F2FD94F85B000028039817D080B294
:104880000090029883B2B4F8500082B2B4F84C00A1
:1048900081B204F1180002F047FE002804BF04B002
:1048A00010BD0298E0640398206504B010BD83B287
:1048B0000298002182B204F1180002F078FE012073
:1048C00084F85B00EDE710B5044690F85B00002823
:1048D00008BF10BDB4F85000012183B2B4F84C00F9
:1048E00082B204F1180002F062FE002084F85B003E
:1048F00010BD0000A403002000E1F5051F85EB5169
:1049000010B504460888E08404F12600FDF7B5FEE2
:1049100001B22068826B2046904704F12600FDF723
:10492000CDFE01B22068C26B2046904704F12600FC
:10493000FDF729FF84F8290010BD2DE9F0478AB062
:104940000024ADF81040ADF814408046ADF8124098
:10495000ADF8164000680E4604A9426A40469047EA
:1049600008F1260A5046FDF788FE81465046FDF7BD
:10497000A5FE69F30F0764F30F0560F31F4764F3A7
:104980001F45CDE9085708A968460AF06AFEB6F93E
:104990000020B6F90400BDF9001017184FF0010C03
:1049A0008F4256DDBDF9040001EB0009914550DD51
:1049B000B6F90200B6F90630C518BDF902309D42BD
:1049C00047DDBDF906501D44854242DD9142C8BF16
:1049D0000A468342D8BF03460FFA89F039B28842AB
:1049E000A8BF0846801AADF804007188F48828B280
:1049F000214409B28842A8BF0846C01AADF8002079
:104A0000ADF80600ADF80230DDE90001CDE90601A0
:104A1000BDF81C00002819BFBDF81E0000280AB010
:104A2000BDE8F087184898F8281006AA0068BDF974
:104A300012308068CDE90021CDF808C00168BDF9C9
:104A40001020D1F80CC008F12601E0470AB0BDE8FB
:104A5000F087ADF80040ADF80440ADF80240ADF885
:104A60000640D1E791F82820FF2A0AD24FF0000C27
:104A7000A0F800C0A0F802C0A0F804C0A0F806C0CA
:104A800070472631FDF73BBEB40300202DE9F04707
:104A900086B0DDE91254DDE914ACDDE90F780E9E35
:104AA000DDF844908DE8C01702F0C6FB274901608D
:104AB000C0E9065406B0BDE8F0878069096808447B
:104AC0007047002A19BF137B002B0020704770B479
:104AD000D27A02EB030C944534D9ACEB02035B1E93
:104AE000012424EA0303134402259342C8BFC46986
:104AF0000DDD00BF34F822608E4204D105EB820048
:104B0000205670BC7047521C92B29342F2DC9C4516
:104B100084BF0422C06915D930F823408C4202D1E9
:104B200005EB830107E002EB8304045B8C4205D1B3
:104B3000062101EB8301405670BC70479B1C9BB261
:104B40009C45E9D870BC002070470000741E010825
:104B50002DE9FF4F95B0DDE92865DDE92310DDE99A
:104B60002687DDF888A0DDF89490002D04BF19B0E9
:104B7000BDE8F08F0023ADF84830ADF84C10ADF82B
:104B80004A30ADF84E000DF1400BFE48FE4AFF4C96
:104B900000881288ADF84030ADF84400ADF84230DE
:104BA000ADF8462020680168096A88470E90002009
:104BB000CDE9095012A8CDE90409CDF80CA0CDF833
:104BC0001880CDE90776DDE91601CDE90001189AD4
:104BD000029259460CA80AF044FD1598DDE90D3102
:104BE00000680C9AD0F828C01598E0472068016842
:104BF000496A884719B0BDE8F08F30B583B0DDE968
:104C00000745DDF818C0ADF80010ADF80430ADF878
:104C10000220ADF806C001682B462246D1F81CC020
:104C20006946E04703B030BD30B583B0DDE90745E4
:104C3000DDF818C0ADF80010ADF804C0ADF80220E2
:104C4000ADF8063001682B462246D1F81CC06946F3
:104C5000E04703B030BD2DE9F04782B00D46B1F812
:104C60000090B1F802C0C9880A9FADF80090ADF875
:104C70000420ADF802C0ADF806100168984614464D
:104C8000D1F81CC006463B4642466946E047B5F9A6
:104C90000010B5F90420304611444FF0FF3909FAED
:104CA00081FCB5F802A0E988ADF800C0ADF8044079
:104CB000ADF802A0ADF8061031683B464246D1F887
:104CC0001CC06946E047B5F800C0B5F802A0A98845
:104CD000ADF800C0ADF80410ADF802A0ADF8064084
:104CE000316830463B46D1F81CC042466946E04731
:104CF000B5F90210B5F90620B5F800C030461144E8
:104D000009FA81F6A988ADF800C0ADF80410ADF835
:104D10000260ADF80640016842463B46D1F81CC02F
:104D20006946E04702B0BDE8F08708B50093134636
:104D30000122FFF790FF08BD0FB4DFF854C210B591
:104D4000DCF804C082B000EB6C001CF0010FDFF84F
:104D500040C21A46089BDCF800C00AA902D00468C9
:104D600054F80CC001910999009105A9E04702B0DF
:104D700010BC5DF814FB2DE9FF4FD1B01F4615465E
:104D800080469369D06AD5E9012CDDE95E64DDE9EE
:104D900061A98049DDF880B18C45C7BFD5F81CC03A
:104DA0008C4555B0BDE8F08FD5F830C08C45DCBFE0
:104DB00055B0BDE8F08FD5F800C07749CDF814C0E4
:104DC0008C45C7BFD5F814C08C4555B0BDE8F08FF1
:104DD000D5F828E07049CDF80CE08E45DCBF55B021
:104DE000BDE8F08F6D49DDF814E08E45D2BF8C45EB
:104DF00055B0BDE8F08FDDF80CC08C45B9BFDFF8C9
:104E000098C1944555B0BDE8F08F9C45B2BF84452C
:104E100055B0BDE8F08F8A42D2BF8B4255B0BDE895
:104E2000F08F8842A4BF55B0BDE8F08F9A4221DAD6
:104E300090420ADA0220039000200490012005909D
:104E4000002002900120019020E000210391834284
:104E500007DA012004900220059001200290022030
:104E600013E002200490012005900220029001200E
:104E700001900BE098422FDA022003900120049069
:104E8000002005900120029000200190294640A8B2
:104E900002F058FE059800902A4640A910A8039BEE
:104EA00002F0FDFF049800902A4640A930A8039B19
:104EB00002F0F5FF059800902A4640A920A8049B1F
:104EC00002F0EDFFDDE90101884219DD00200A90C2
:104ED00010A8089030A818E001210391824207DA57
:104EE0000020049002200590032002900220CCE7CD
:104EF0000220049000200590022002900320C4E7C5
:104F000001200A9030A8089010A809900898B6F9D6
:104F10000210B4F906C04269B4F90200369D531874
:104F200084449C4508DD9842C8BF002D12DD114421
:104F3000401A0690A84200DD06950698002809DD73
:104F4000014630A80AF0B6F910A806990AF0B2F99D
:104F500006982D1A281EA5F101057DDDCDE9034B2C
:104F6000CDE905A90998CDE900070296D8F8000017
:104F700040AA089BD0F824C040465299E0470898C0
:104F800040690DE0AA030020AC030020B403002018
:104F90006403002000002041008FFDFF007102002B
:104FA000B6F90210B4F902200844411CB4F9060015
:104FB00010448142A4BF55B0BDE8F08FDDE9300157
:104FC000084430903598401C35903698401E3690F5
:104FD0009DED3A0ADDED3B0A30EE200A8DED3A0AEE
:104FE000DDED3D0A9DED3E1A30EE811A8DED3D1A44
:104FF000DDED370ADDED381A70EEA10ACDED370A86
:1050000032993498084433993490884217DB3098A9
:10501000401C30903498401A3490DDED391A70EE0F
:10502000A10ACDED370ADDED3C0A30EE200A8DED08
:105030003A0A9DED3F0A31EE000A8DED3D0ADDE9A9
:105040001001084410901598401C15901698401EA9
:1050500016909DED1A0A00E039E0DDED1B0A30EEF6
:10506000200A8DED1A0ADDED1D0A9DED1E1A30EEA7
:10507000811A8DED1D1ADDED170ADDED181A70EE9F
:10508000A10ACDED170A12991498084413991490A7
:10509000884217DB1098401C10901498401A149006
:1050A000DDED191A70EEA10ACDED170ADDED1C0A2F
:1050B00030EE200A8DED1A0A9DED1F0A31EE000A2E
:1050C0008DED1D0A281EA5F101053FF747AF0A988F
:1050D000269D002804BF10A8089020A81CBF089097
:1050E00010A809900898B6F90230B4F906C04269D0
:1050F000B4F90200D11884448C4508DD8842C8BF49
:10510000002D12DD9918401A0690A84200DD069580
:105110000698002809DD014620A80AF0CBF810A85F
:1051200006990AF0C7F806982D1A281EA5F1010560
:10513000DCBF55B0BDE8F08FCDE9034BCDE905A943
:105140000998CDE900070296D8F8000040AA089B0C
:10515000D0F824C040465299E0470898B4F902209C
:105160004169B6F902000844411CB4F90600104434
:105170008842DCBF55B0BDE8F08FDDE9200108446E
:1051800020902598401C25902698401E26909DED45
:105190002A0ADDED2B0A30EE201A8DED2A1A9DED3C
:1051A0002D0ADDED2E0A30EE200A8DED2D0ADDED03
:1051B000270ADDED281A70EEA10ACDED270A229903
:1051C0002498084423992490814217DC2098401C9D
:1051D00020902498401A2490DDED291A70EEA10A3F
:1051E000CDED270ADDED2C0A71EE200ACDED2A0A5D
:1051F000DDED2F0A30EE200A8DED2D0ADDE91001DC
:10520000084410901598401C15901698401E169052
:105210009DED1A0ADDED1B0A30EE200A8DED1A0A0B
:10522000DDED1D0A9DED1E1A30EE811A8DED1D1A61
:10523000DDED170ADDED181A70EEA10ACDED170AA3
:1052400012991498084413991490884217DB109807
:10525000401C10901498401A1490DDED191A70EE4D
:10526000A10ACDED170ADDED1C0A30EE200A8DED06
:105270001A0A9DED1F0A31EE000A8DED1D0A281E47
:10528000A5F101053FF758AF55B0BDE8F08F30B537
:1052900087B0002A04BF07B030BD012A1DD0022A02
:1052A00030D0032A1CBF07B030BD04ABCA88C18808
:1052B000B0F802C0521AA2EB0C02B0F800C0848809
:1052C000ADF81410ADF81020ADF812C0ADF81640CE
:1052D00019460AF0C6F907B030BD8A88818804886B
:1052E000521A121BB0F802C0C488ADF80440ADF8E1
:1052F00000C0ADF80610ADF8022069460AF0B1F919
:1053000007B030BDB1F804C082880488ACEB020C51
:10531000ACEB040CCC88C1884588641AADF80C202D
:1053200002AB641BADF808C0ADF80E10ADF80A4032
:1053300019460AF096F907B030BDB0F900C0012B4C
:1053400008D0022B0BD0032B0CBF0CEB02000CEB94
:1053500001007047B0F904006044801A03E0B0F91E
:1053600004006044401A401E7047B0F902C0012B8F
:1053700004BF0CEB01007047022B0AD0032B1CBFAB
:105380000CEB02007047B0F906006044401A401E62
:105390007047B0F906006044801AF8E72DE9FF4F26
:1053A00099B000242798DDE92B8203888088289D06
:1053B000184400B21390286826994746437A1493FC
:1053C000007A1190B1F900000F940B9032B1287C53
:1053D00004280CBF0220012000EB08070026002F44
:1053E000C4BF4FF6FF6A42F20B0B40F30781A146A0
:1053F000464504DB286801684969884703E0DDE920
:10540000291002F015FA0446504518BF5C4500F01B
:10541000DC80002C00F0F2800A2C00F0EB80286881
:1054200015AB12AA0168D1F808C02146E0470C90DC
:1054300018B18488299858B10EE028680168096974
:10544000884750451EBF584500200F9000F0BDB85A
:105450000F990B9808440B900C98407B10F0800F2C
:1054600014BF4FF4807100210C98807A08430F908C
:105470002998012803D10F990B98401A0B9029986D
:10548000B9F1000F15D0002828680C9A01688B6BC1
:10549000494604D098470B99081A0B900DE098479D
:1054A0000B9908440B901199411A139881427CDCA6
:1054B00010E0002808BF0B98F5D02998012809D1E1
:1054C0000F990B980144149801442798B0F90000F3
:1054D00081427EDB0C98407B10F0080F14BF4FF424
:1054E000807100210C98807901430B980A180C9860
:1054F00090F9091027980A44B0F90000824264DB51
:105500000B9A0A44139991425FDD0B994FF0000901
:105510008842C4BF401A1FFA80F90020049028680E
:105520000168C96A88471C9901440C98437B13F0B1
:10553000400018BF4FF47E4013F0200218BF4FF414
:10554000807202430C98007A1043279A081A01B21D
:10555000B2F9022008468A420FDD13F0100F14BF83
:105560004FF4807300230C98C0791843084490428C
:105570002BDB511A89B210460491AA7BAB799DF8B6
:105580005410CDE908120A93A96807910DF10C0E89
:105590000499DDF848C00C9B279AAEE80E100B99D1
:1055A000CDF80890494409B200E012E0CDE90010BE
:1055B00016A81B990AF055F819980068D0F828C069
:1055C000DDE91901DDE91623E047761CBE42FFF64E
:1055D0000EAF9CB10A2C1CBF741C44450ADA00BFF4
:1055E000DDE9291002F024F940B10A281CBF641C2F
:1055F0004445F5DB1DB00020BDE8F08F1DB0012053
:10560000BDE8F08F2DE9FF5F4FF000089B46B2F137
:10561000000A0F464446464625DDA14659460098F5
:1056200002F006F9040018BF0A2C1CD03868214685
:10563000C26838469047050012D03868AC882A46C0
:10564000836B494638469847697B11F0800118BF43
:105650004FF48071AA7A1143084440441FFA80F83D
:10566000761C5645D9DB04B04046BDE8F09F10B427
:10567000448BB0F816C0E41AA444A0F816C0B0F8E1
:1056800018C06244C2830CEB010202834383828B05
:10569000511A818310BC70472DE9F34F81B04FF050
:1056A00000090446CDF800900299407A4F46C8465A
:1056B00000292FD0032818BF042829D0012818BF9B
:1056C000002725D002280CBF4FF001084FF000083A
:1056D0000020E08220830646B4F800A0217A6068AA
:1056E00002F0A6F8208018B3618B491C61830A2858
:1056F0001ED022691168CB680146104698475FEAC0
:10570000000BE9D0BBF80400208020281FD022E045
:105710000127D7E703281ABF04284FF000094FF0EC
:105720000109012816BF0228012000200090CFE7C0
:10573000E38A628BA08B1A44E282228B002102440E
:10574000E283228B104420836183084689E0BAF10A
:10575000200F18BFA68BA58B20695A4601688B6B5A
:10576000514698479BF80D1011F0800118BF4FF477
:1057700080719BF80A2011430844A18B084480B231
:10578000A083218BA38A014499428CBF012200226D
:10579000DDF808C0BCF1000F2CD03FB9B8F1000F04
:1057A0000BD0B4F800C0BCF1200F06D1B4F820C073
:1057B0006144994210D9E18A71B1002A1CBFE08A84
:1057C000002889D0012084F82200E08B218C084435
:1057D000E08303B0BDE8F08FE38A628B00211A44B6
:1057E000E282228B0244E283228B10442083618375
:1057F000084652E0CAB3B9F1000F12D0628BE18AB9
:10580000521E1144E182218B01202944E183218B26
:10581000294421836083A08B401BA08303B0BDE893
:10582000F08F009800281CBF208820283FF454AF38
:10583000BAF1200F06D0E08A00283FF44DAF03B044
:10584000BDE8F08F628BE18A521E1144E182218B08
:1058500001203144E183218B294421836083A08B83
:10586000401BA08303B0BDE8F08FFFE7208820280D
:105870003FF432AFBAF1200F7FF42EAF628BE08A93
:10588000521E1044E082208B01213044E083208BA3
:10589000284420836183A08B401BA0831CE72DE953
:1058A000FF4FA9B01C46DDE93665002E19BF206800
:1058B00000282DB0BDE8F08FA07B002804BF2DB0DC
:1058C000BDE8F08F11460AA809F0CBFE2A9A002104
:1058D0000AA89388D288ADF82010ADF82210ADF850
:1058E0002430ADF82620A27908A9FFF7D0FC08A93A
:1058F000A2790846FFF7CBFC16A801F046FF2A461E
:10590000AA46314616A801F064FF1CA801F03DFF2D
:105910002079002808BF002705D0012752463146CC
:105920001CA801F056FF20680168096B8847A1890F
:105930004518BDF92A0090FBF5F822A801F025FFD3
:10594000207C20B15246314622A801F042FF217C42
:105950002068CDE900016379BDF8242022A90CA8B4
:1059600009F066FC207CB8B3B8F1000F58DD00BF29
:10597000BDF92600B0EB450FB4BF012100210CA8F2
:10598000FFF78AFEBDF84610481E86B269B16179FC
:1059900016A801F04DFF1FB161791CA801F048FF66
:1059A0003000A6F101018EB2F1D1BDF82200A8F1BC
:1059B00001082844ADF82200BDF82600401BADF8D0
:1059C0002600BDF83000002804BF2DB0BDE8F08FE0
:1059D000B8F1000FCCDC23E0FFE7B8F1000F1FDDCA
:1059E000617916A801F024FF06461FB161791CA851
:1059F00001F01EFF002E04BF2DB0BDE8F08F0A2E6F
:105A00000BD1BDF82200A8F101082844ADF822000E
:105A1000BDF82600401BADF82600B8F1000FDFDC12
:105A2000FB4800680168096A8847159000200190CA
:105A3000207C48B1BDF92600B0EB450FACBF00217A
:105A400001210CA8FFF728FE002F04BFE07B019086
:105A500057D0207C002818BFBDF84E003BD11CA8B1
:105A6000039047F6FF70D4F8009004900020029055
:105A7000064680460090DDE90210B24601F0D8FEED
:105A8000060018BF0A2E25D0D9F800003146C2689A
:105A9000484690475FEA000B17D0D9F80000BBF8E2
:105AA00004605A46836B5146484698479BF80D1050
:105AB00011F0800118BF4FF480719BF80A20114348
:105AC00001440098084480B20090049808F101084D
:105AD0008045D0DB009801B22079012802D002284D
